00:12:22.175670 IP 10.0.5.8.520 > 224.0.0.9.520: RIPv2, Request, length: 24
	0x0000:  4500 0034 0000 4000 0111 8aa8 0a00 0508
	0x0010:  e000 0009 0208 0208 0020 0b7b 0102 0000
	0x0020:  0000 0000 0000 0000 0000 0000 0000 0000
	0x0030:  0000 0010
00:12:22.199397 IP 10.0.5.9.520 > 224.0.0.9.520: RIPv2, Request, length: 24
	0x0000:  4500 0034 0000 4000 0111 8aa7 0a00 0509
	0x0010:  e000 0009 0208 0208 0020 0b7a 0102 0000
	0x0020:  0000 0000 0000 0000 0000 0000 0000 0000
	0x0030:  0000 0010
00:12:22.212762 IP 10.0.5.8 > 224.0.0.22: igmp v3 report, 1 group record(s)
	0x0000:  46c0 0028 0000 4000 0102 f4f1 0a00 0508
	0x0010:  e000 0016 9404 0000 2200 f9f4 0000 0001
	0x0020:  0400 0000 e000 0009
00:12:22.222826 arp who-has 10.0.5.9 tell 10.0.5.8
	0x0000:  0001 0800 0604 0001 fefd 0000 0802 0a00
	0x0010:  0508 0000 0000 0000 0a00 0509
00:12:22.223049 arp reply 10.0.5.9 is-at fe:fd:00:00:09:01
	0x0000:  0001 0800 0604 0002 fefd 0000 0901 0a00
	0x0010:  0509 fefd 0000 0802 0a00 0508
00:12:22.223097 IP 10.0.5.8.520 > 10.0.5.9.520: RIPv2, Response, length: 24
	0x0000:  4500 0034 0000 4000 4011 1ca9 0a00 0508
	0x0010:  0a00 0509 0208 0208 0020 cf87 0202 0000
	0x0020:  0002 0000 0a00 0300 ffff ff00 0000 0000
	0x0030:  0000 0001
00:12:22.234277 IP 10.0.5.9 > 224.0.0.22: igmp v3 report, 1 group record(s)
	0x0000:  46c0 0028 0000 4000 0102 f4f0 0a00 0509
	0x0010:  e000 0016 9404 0000 2200 f9f4 0000 0001
	0x0020:  0400 0000 e000 0009
00:12:23.173829 IP 10.0.5.8.520 > 224.0.0.9.520: RIPv2, Response, length: 144
	0x0000:  4500 00ac 0000 4000 0111 8a30 0a00 0508
	0x0010:  e000 0009 0208 0208 0098 a568 0202 0000
	0x0020:  0002 0000 0a00 0100 ffff ff00 0000 0000
	0x0030:  0000 0002 0002 0000 0a00 0200 ffff ff00
	0x0040:  0000 0000 0000 0005 0002 0000 0a00 0400
	0x0050:  ffff ff00 0000 0000 0000 0006 0002 0000
	0x0060:  0a00 0600 ffff ff00 0000 0000 0000 0005
	0x0070:  0002 0000 0a00 0700 ffff ff00 0000 0000
	0x0080:  0000 0004 0002 0000 0a00 0800 ffff ff00
	0x0090:  0000 0000 0000 0004 0002 0000 0a00 0900
	0x00a0:  ffff ff00 0000 0000 0000 0003
00:12:27.632748 IP 10.0.5.8 > 224.0.0.22: igmp v3 report, 1 group record(s)
	0x0000:  46c0 0028 0000 4000 0102 f4f1 0a00 0508
	0x0010:  e000 0016 9404 0000 2200 f9f4 0000 0001
	0x0020:  0400 0000 e000 0009
00:12:32.104866 IP 10.0.5.9 > 224.0.0.22: igmp v3 report, 1 group record(s)
	0x0000:  46c0 0028 0000 4000 0102 f4f0 0a00 0509
	0x0010:  e000 0016 9404 0000 2200 f9f4 0000 0001
	0x0020:  0400 0000 e000 0009
00:12:32.120435 IP 10.0.5.8.520 > 224.0.0.9.520: RIPv2, Response, length: 164
	0x0000:  4500 00c0 0000 4000 0111 8a1c 0a00 0508
	0x0010:  e000 0009 0208 0208 00ac 993c 0202 0000
	0x0020:  0002 0000 0a00 0100 ffff ff00 0000 0000
	0x0030:  0000 0002 0002 0000 0a00 0200 ffff ff00
	0x0040:  0000 0000 0000 0005 0002 0000 0a00 0300
	0x0050:  ffff ff00 0000 0000 0000 0001 0002 0000
	0x0060:  0a00 0400 ffff ff00 0000 0000 0000 0006
	0x0070:  0002 0000 0a00 0600 ffff ff00 0000 0000
	0x0080:  0000 0005 0002 0000 0a00 0700 ffff ff00
	0x0090:  0000 0000 0000 0004 0002 0000 0a00 0800
	0x00a0:  ffff ff00 0000 0000 0000 0004 0002 0000
	0x00b0:  0a00 0900 ffff ff00 0000 0000 0000 0003
00:12:44.139192 IP 10.0.5.8.520 > 224.0.0.9.520: RIPv2, Response, length: 164
	0x0000:  4500 00c0 0000 4000 0111 8a1c 0a00 0508
	0x0010:  e000 0009 0208 0208 00ac 993c 0202 0000
	0x0020:  0002 0000 0a00 0100 ffff ff00 0000 0000
	0x0030:  0000 0002 0002 0000 0a00 0200 ffff ff00
	0x0040:  0000 0000 0000 0005 0002 0000 0a00 0300
	0x0050:  ffff ff00 0000 0000 0000 0001 0002 0000
	0x0060:  0a00 0400 ffff ff00 0000 0000 0000 0006
	0x0070:  0002 0000 0a00 0600 ffff ff00 0000 0000
	0x0080:  0000 0005 0002 0000 0a00 0700 ffff ff00
	0x0090:  0000 0000 0000 0004 0002 0000 0a00 0800
	0x00a0:  ffff ff00 0000 0000 0000 0004 0002 0000
	0x00b0:  0a00 0900 ffff ff00 0000 0000 0000 0003
00:12:53.149579 IP 10.0.5.8.520 > 224.0.0.9.520: RIPv2, Response, length: 164
	0x0000:  4500 00c0 0000 4000 0111 8a1c 0a00 0508
	0x0010:  e000 0009 0208 0208 00ac 993c 0202 0000
	0x0020:  0002 0000 0a00 0100 ffff ff00 0000 0000
	0x0030:  0000 0002 0002 0000 0a00 0200 ffff ff00
	0x0040:  0000 0000 0000 0005 0002 0000 0a00 0300
	0x0050:  ffff ff00 0000 0000 0000 0001 0002 0000
	0x0060:  0a00 0400 ffff ff00 0000 0000 0000 0006
	0x0070:  0002 0000 0a00 0600 ffff ff00 0000 0000
	0x0080:  0000 0005 0002 0000 0a00 0700 ffff ff00
	0x0090:  0000 0000 0000 0004 0002 0000 0a00 0800
	0x00a0:  ffff ff00 0000 0000 0000 0004 0002 0000
	0x00b0:  0a00 0900 ffff ff00 0000 0000 0000 0003

