19:08:30.218621 IP 10.0.2.2.router > 224.0.0.9.router: RIPv2, Request, length: 24
	0x0000:  4500 0034 0000 4000 0111 8dae 0a00 0202
	0x0010:  e000 0009 0208 0208 0020 0e81 0102 0000
	0x0020:  0000 0000 0000 0000 0000 0000 0000 0000
	0x0030:  0000 0010
19:08:30.226930 IP 10.0.2.3.router > 224.0.0.9.router: RIPv2, Request, length: 24
	0x0000:  4500 0034 0000 4000 0111 8dad 0a00 0203
	0x0010:  e000 0009 0208 0208 0020 0e80 0102 0000
	0x0020:  0000 0000 0000 0000 0000 0000 0000 0000
	0x0030:  0000 0010
19:08:30.250166 arp who-has 10.0.2.3 tell 10.0.2.2
	0x0000:  0001 0800 0604 0001 fefd 0000 0202 0a00
	0x0010:  0202 0000 0000 0000 0a00 0203
19:08:30.250211 arp reply 10.0.2.3 is-at fe:fd:00:00:03:01
	0x0000:  0001 0800 0604 0002 fefd 0000 0301 0a00
	0x0010:  0203 fefd 0000 0202 0a00 0202
19:08:30.250212 IP 10.0.2.2 > 224.0.0.22: igmp v3 report, 1 group record(s)
	0x0000:  46c0 0028 0000 4000 0102 f7f7 0a00 0202
	0x0010:  e000 0016 9404 0000 2200 f9f4 0000 0001
	0x0020:  0400 0000 e000 0009
19:08:30.250244 IP 10.0.2.2.router > 10.0.2.3.router: RIPv2, Response, length: 24
	0x0000:  4500 0034 0000 4000 4011 22b5 0a00 0202
	0x0010:  0a00 0203 0208 0208 0020 d793 0202 0000
	0x0020:  0002 0000 0a00 0100 ffff ff00 0000 0000
	0x0030:  0000 0001
19:08:30.260786 IP 10.0.2.3 > 224.0.0.22: igmp v3 report, 1 group record(s)
	0x0000:  46c0 0028 0000 4000 0102 f7f6 0a00 0203
	0x0010:  e000 0016 9404 0000 2200 f9f4 0000 0001
	0x0020:  0400 0000 e000 0009
19:08:32.542962 IP 10.0.2.2 > 224.0.0.22: igmp v3 report, 1 group record(s)
	0x0000:  46c0 0028 0000 4000 0102 f7f7 0a00 0202
	0x0010:  e000 0016 9404 0000 2200 f9f4 0000 0001
	0x0020:  0400 0000 e000 0009
19:08:33.442165 IP 10.0.2.3 > 224.0.0.22: igmp v3 report, 1 group record(s)
	0x0000:  46c0 0028 0000 4000 0102 f7f6 0a00 0203
	0x0010:  e000 0016 9404 0000 2200 f9f4 0000 0001
	0x0020:  0400 0000 e000 0009
19:08:34.207557 IP 10.0.2.2.router > 224.0.0.9.router: RIPv2, Response, length: 24
	0x0000:  4500 0034 0000 4000 0111 8dae 0a00 0202
	0x0010:  e000 0009 0208 0208 0020 ff8b 0202 0000
	0x0020:  0002 0000 0a00 0500 ffff ff00 0000 0000
	0x0030:  0000 0002
19:08:34.228310 IP 10.0.2.3.router > 224.0.0.9.router: RIPv2, Response, length: 24
	0x0000:  4500 0034 0000 4000 0111 8dad 0a00 0203
	0x0010:  e000 0009 0208 0208 0020 018c 0202 0000
	0x0020:  0002 0000 0a00 0300 ffff ff00 0000 0000
	0x0030:  0000 0001
19:08:37.243741 IP 10.0.2.3.router > 224.0.0.9.router: RIPv2, Response, length: 24
	0x0000:  4500 0034 0000 4000 0111 8dad 0a00 0203
	0x0010:  e000 0009 0208 0208 0020 008b 0202 0000
	0x0020:  0002 0000 0a00 0400 ffff ff00 0000 0000
	0x0030:  0000 0002
19:08:38.196371 IP 10.0.2.2.router > 224.0.0.9.router: RIPv2, Response, length: 44
	0x0000:  4500 0048 0000 4000 0111 8d9a 0a00 0202
	0x0010:  e000 0009 0208 0208 0034 f55f 0202 0000
	0x0020:  0002 0000 0a00 0100 ffff ff00 0000 0000
	0x0030:  0000 0001 0002 0000 0a00 0500 ffff ff00
	0x0040:  0000 0000 0000 0002
19:08:38.196678 IP 10.0.2.3.router > 224.0.0.9.router: RIPv2, Response, length: 44
	0x0000:  4500 0048 0000 4000 0111 8d99 0a00 0203
	0x0010:  e000 0009 0208 0208 0034 f45e 0202 0000
	0x0020:  0002 0000 0a00 0300 ffff ff00 0000 0000
	0x0030:  0000 0001 0002 0000 0a00 0400 ffff ff00
	0x0040:  0000 0000 0000 0002
19:08:50.212149 IP 10.0.2.2.router > 224.0.0.9.router: RIPv2, Response, length: 44
	0x0000:  4500 0048 0000 4000 0111 8d9a 0a00 0202
	0x0010:  e000 0009 0208 0208 0034 f55f 0202 0000
	0x0020:  0002 0000 0a00 0100 ffff ff00 0000 0000
	0x0030:  0000 0001 0002 0000 0a00 0500 ffff ff00
	0x0040:  0000 0000 0000 0002
19:08:50.212454 IP 10.0.2.3.router > 224.0.0.9.router: RIPv2, Response, length: 44
	0x0000:  4500 0048 0000 4000 0111 8d99 0a00 0203
	0x0010:  e000 0009 0208 0208 0034 f45e 0202 0000
	0x0020:  0002 0000 0a00 0300 ffff ff00 0000 0000
	0x0030:  0000 0001 0002 0000 0a00 0400 ffff ff00
	0x0040:  0000 0000 0000 0002

