19:08:30.227227 IP 10.0.3.3.router > 224.0.0.9.router: RIPv2, Request, length: 24
	0x0000:  4500 0034 0000 4000 0111 8cad 0a00 0303
	0x0010:  e000 0009 0208 0208 0020 0d80 0102 0000
	0x0020:  0000 0000 0000 0000 0000 0000 0000 0000
	0x0030:  0000 0010
19:08:30.239396 IP 10.0.3.4.router > 224.0.0.9.router: RIPv2, Request, length: 24
	0x0000:  4500 0034 0000 4000 0111 8cac 0a00 0304
	0x0010:  e000 0009 0208 0208 0020 0d7f 0102 0000
	0x0020:  0000 0000 0000 0000 0000 0000 0000 0000
	0x0030:  0000 0010
19:08:30.260807 IP 10.0.3.3 > 224.0.0.22: igmp v3 report, 1 group record(s)
	0x0000:  46c0 0028 0000 4000 0102 f6f6 0a00 0303
	0x0010:  e000 0016 9404 0000 2200 f9f4 0000 0001
	0x0020:  0400 0000 e000 0009
19:08:30.260825 arp who-has 10.0.3.4 tell 10.0.3.3
	0x0000:  0001 0800 0604 0001 fefd 0000 0302 0a00
	0x0010:  0303 0000 0000 0000 0a00 0304
19:08:30.260861 arp reply 10.0.3.4 is-at fe:fd:00:00:04:01
	0x0000:  0001 0800 0604 0002 fefd 0000 0401 0a00
	0x0010:  0304 fefd 0000 0302 0a00 0303
19:08:30.260905 IP 10.0.3.3.router > 10.0.3.4.router: RIPv2, Response, length: 24
	0x0000:  4500 0034 0000 4000 4011 20b3 0a00 0303
	0x0010:  0a00 0304 0208 0208 0020 d491 0202 0000
	0x0020:  0002 0000 0a00 0200 ffff ff00 0000 0000
	0x0030:  0000 0001
19:08:30.271649 IP 10.0.3.4 > 224.0.0.22: igmp v3 report, 1 group record(s)
	0x0000:  46c0 0028 0000 4000 0102 f6f5 0a00 0304
	0x0010:  e000 0016 9404 0000 2200 f9f4 0000 0001
	0x0020:  0400 0000 e000 0009
19:08:30.933944 IP 10.0.3.4 > 224.0.0.22: igmp v3 report, 1 group record(s)
	0x0000:  46c0 0028 0000 4000 0102 f6f5 0a00 0304
	0x0010:  e000 0016 9404 0000 2200 f9f4 0000 0001
	0x0020:  0400 0000 e000 0009
19:08:33.241897 IP 10.0.3.3 > 224.0.0.22: igmp v3 report, 1 group record(s)
	0x0000:  46c0 0028 0000 4000 0102 f6f6 0a00 0303
	0x0010:  e000 0016 9404 0000 2200 f9f4 0000 0001
	0x0020:  0400 0000 e000 0009
19:08:34.228488 IP 10.0.3.3.router > 224.0.0.9.router: RIPv2, Response, length: 44
	0x0000:  4500 0048 0000 4000 0111 8c99 0a00 0303
	0x0010:  e000 0009 0208 0208 0034 f45c 0202 0000
	0x0020:  0002 0000 0a00 0100 ffff ff00 0000 0000
	0x0030:  0000 0002 0002 0000 0a00 0500 ffff ff00
	0x0040:  0000 0000 0000 0003
19:08:34.228927 IP 10.0.3.4.router > 224.0.0.9.router: RIPv2, Response, length: 24
	0x0000:  4500 0034 0000 4000 0111 8cac 0a00 0304
	0x0010:  e000 0009 0208 0208 0020 ff8a 0202 0000
	0x0020:  0002 0000 0a00 0400 ffff ff00 0000 0000
	0x0030:  0000 0001
19:08:37.245896 IP 10.0.3.4.router > 224.0.0.9.router: RIPv2, Response, length: 24
	0x0000:  4500 0034 0000 4000 0111 8cac 0a00 0304
	0x0010:  e000 0009 0208 0208 0020 fe89 0202 0000
	0x0020:  0002 0000 0a00 0500 ffff ff00 0000 0000
	0x0030:  0000 0002
19:08:38.196863 IP 10.0.3.3.router > 224.0.0.9.router: RIPv2, Response, length: 64
	0x0000:  4500 005c 0000 4000 0111 8c85 0a00 0303
	0x0010:  e000 0009 0208 0208 0048 e930 0202 0000
	0x0020:  0002 0000 0a00 0100 ffff ff00 0000 0000
	0x0030:  0000 0002 0002 0000 0a00 0200 ffff ff00
	0x0040:  0000 0000 0000 0001 0002 0000 0a00 0500
	0x0050:  ffff ff00 0000 0000 0000 0003
19:08:38.217664 IP 10.0.3.4.router > 224.0.0.9.router: RIPv2, Response, length: 44
	0x0000:  4500 0048 0000 4000 0111 8c98 0a00 0304
	0x0010:  e000 0009 0208 0208 0034 f15d 0202 0000
	0x0020:  0002 0000 0a00 0400 ffff ff00 0000 0000
	0x0030:  0000 0001 0002 0000 0a00 0500 ffff ff00
	0x0040:  0000 0000 0000 0002
19:08:50.212677 IP 10.0.3.3.router > 224.0.0.9.router: RIPv2, Response, length: 64
	0x0000:  4500 005c 0000 4000 0111 8c85 0a00 0303
	0x0010:  e000 0009 0208 0208 0048 e930 0202 0000
	0x0020:  0002 0000 0a00 0100 ffff ff00 0000 0000
	0x0030:  0000 0002 0002 0000 0a00 0200 ffff ff00
	0x0040:  0000 0000 0000 0001 0002 0000 0a00 0500
	0x0050:  ffff ff00 0000 0000 0000 0003
19:08:50.233243 IP 10.0.3.4.router > 224.0.0.9.router: RIPv2, Response, length: 44
	0x0000:  4500 0048 0000 4000 0111 8c98 0a00 0304
	0x0010:  e000 0009 0208 0208 0034 f15d 0202 0000
	0x0020:  0002 0000 0a00 0400 ffff ff00 0000 0000
	0x0030:  0000 0001 0002 0000 0a00 0500 ffff ff00
	0x0040:  0000 0000 0000 0002

