19:08:30.239704 IP 10.0.4.4.router > 224.0.0.9.router: RIPv2, Request, length: 24
	0x0000:  4500 0034 0000 4000 0111 8bac 0a00 0404
	0x0010:  e000 0009 0208 0208 0020 0c7f 0102 0000
	0x0020:  0000 0000 0000 0000 0000 0000 0000 0000
	0x0030:  0000 0010
19:08:30.271671 IP 10.0.4.4 > 224.0.0.22: igmp v3 report, 1 group record(s)
	0x0000:  46c0 0028 0000 4000 0102 f5f5 0a00 0404
	0x0010:  e000 0016 9404 0000 2200 f9f4 0000 0001
	0x0020:  0400 0000 e000 0009
19:08:30.271889 IP 10.0.4.5.router > 224.0.0.9.router: RIPv2, Request, length: 24
	0x0000:  4500 0034 0000 4000 0111 8bab 0a00 0405
	0x0010:  e000 0009 0208 0208 0020 0c7e 0102 0000
	0x0020:  0000 0000 0000 0000 0000 0000 0000 0000
	0x0030:  0000 0010
19:08:30.292192 arp who-has 10.0.4.5 tell 10.0.4.4
	0x0000:  0001 0800 0604 0001 fefd 0000 0402 0a00
	0x0010:  0404 0000 0000 0000 0a00 0405
19:08:30.292231 arp reply 10.0.4.5 is-at fe:fd:00:00:05:01
	0x0000:  0001 0800 0604 0002 fefd 0000 0501 0a00
	0x0010:  0405 fefd 0000 0402 0a00 0404
19:08:30.292301 IP 10.0.4.4.router > 10.0.4.5.router: RIPv2, Response, length: 44
	0x0000:  4500 0048 0000 4000 4011 1e9d 0a00 0404
	0x0010:  0a00 0405 0208 0208 0034 c662 0202 0000
	0x0020:  0002 0000 0a00 0200 ffff ff00 0000 0000
	0x0030:  0000 0002 0002 0000 0a00 0300 ffff ff00
	0x0040:  0000 0000 0000 0001
19:08:30.313686 IP 10.0.4.5 > 224.0.0.22: igmp v3 report, 1 group record(s)
	0x0000:  46c0 0028 0000 4000 0102 f5f4 0a00 0405
	0x0010:  e000 0016 9404 0000 2200 f9f4 0000 0001
	0x0020:  0400 0000 e000 0009
19:08:30.403092 IP 10.0.4.4 > 224.0.0.22: igmp v3 report, 1 group record(s)
	0x0000:  46c0 0028 0000 4000 0102 f5f5 0a00 0404
	0x0010:  e000 0016 9404 0000 2200 f9f4 0000 0001
	0x0020:  0400 0000 e000 0009
19:08:34.229101 IP 10.0.4.4.router > 224.0.0.9.router: RIPv2, Response, length: 24
	0x0000:  4500 0034 0000 4000 0111 8bac 0a00 0404
	0x0010:  e000 0009 0208 0208 0020 008a 0202 0000
	0x0020:  0002 0000 0a00 0200 ffff ff00 0000 0000
	0x0030:  0000 0002
19:08:34.259802 IP 10.0.4.5.router > 224.0.0.9.router: RIPv2, Response, length: 44
	0x0000:  4500 0048 0000 4000 0111 8b97 0a00 0405
	0x0010:  e000 0009 0208 0208 0034 f35c 0202 0000
	0x0020:  0002 0000 0a00 0100 ffff ff00 0000 0000
	0x0030:  0000 0002 0002 0000 0a00 0500 ffff ff00
	0x0040:  0000 0000 0000 0001
19:08:35.892149 IP 10.0.4.5 > 224.0.0.22: igmp v3 report, 1 group record(s)
	0x0000:  46c0 0028 0000 4000 0102 f5f4 0a00 0405
	0x0010:  e000 0016 9404 0000 2200 f9f4 0000 0001
	0x0020:  0400 0000 e000 0009
19:08:37.246145 IP 10.0.4.4.router > 224.0.0.9.router: RIPv2, Response, length: 24
	0x0000:  4500 0034 0000 4000 0111 8bac 0a00 0404
	0x0010:  e000 0009 0208 0208 0020 0189 0202 0000
	0x0020:  0002 0000 0a00 0100 ffff ff00 0000 0000
	0x0030:  0000 0003
19:08:38.217831 IP 10.0.4.4.router > 224.0.0.9.router: RIPv2, Response, length: 64
	0x0000:  4500 005c 0000 4000 0111 8b84 0a00 0404
	0x0010:  e000 0009 0208 0208 0048 ea2f 0202 0000
	0x0020:  0002 0000 0a00 0100 ffff ff00 0000 0000
	0x0030:  0000 0003 0002 0000 0a00 0200 ffff ff00
	0x0040:  0000 0000 0000 0002 0002 0000 0a00 0300
	0x0050:  ffff ff00 0000 0000 0000 0001
19:08:38.258632 IP 10.0.4.5.router > 224.0.0.9.router: RIPv2, Response, length: 44
	0x0000:  4500 0048 0000 4000 0111 8b97 0a00 0405
	0x0010:  e000 0009 0208 0208 0034 f35c 0202 0000
	0x0020:  0002 0000 0a00 0100 ffff ff00 0000 0000
	0x0030:  0000 0002 0002 0000 0a00 0500 ffff ff00
	0x0040:  0000 0000 0000 0001
19:08:50.233545 IP 10.0.4.4.router > 224.0.0.9.router: RIPv2, Response, length: 64
	0x0000:  4500 005c 0000 4000 0111 8b84 0a00 0404
	0x0010:  e000 0009 0208 0208 0048 ea2f 0202 0000
	0x0020:  0002 0000 0a00 0100 ffff ff00 0000 0000
	0x0030:  0000 0003 0002 0000 0a00 0200 ffff ff00
	0x0040:  0000 0000 0000 0002 0002 0000 0a00 0300
	0x0050:  ffff ff00 0000 0000 0000 0001
19:08:50.274067 IP 10.0.4.5.router > 224.0.0.9.router: RIPv2, Response, length: 44
	0x0000:  4500 0048 0000 4000 0111 8b97 0a00 0405
	0x0010:  e000 0009 0208 0208 0034 f35c 0202 0000
	0x0020:  0002 0000 0a00 0100 ffff ff00 0000 0000
	0x0030:  0000 0002 0002 0000 0a00 0500 ffff ff00
	0x0040:  0000 0000 0000 0001

